:1070000029C000004BC0000049C0000047C000007C
:1070100045C0000043C0000041C000003FC0000068
:107020003DC000003BC0000039C0000037C0000078
:1070300035C0000033C0000031C000002FC0000088
:107040002DC000002BC0000029C0000027C0000098
:1070500025C0000011241FBECFE5D8E0DEBFCDBFA4
:1070600014BE0FB6F894A89581B5886181BD11BC96
:107070000FBE10E0A0E6B0E0E2EEFEE702C0059031
:107080000D92AA36B107D9F721E0AAE6B0E001C017
:107090001D92A731B207E1F703D621C7B1CF0F93F5
:1070A0001F93E0911401F09115019B01AC01225056
:1070B00031094109510986819781A085B1850297DF
:1070C000A109B109281739074A075B0770F4A281A3
:1070D000B0E0B5D60289138924893589600F711F04
:1070E000821F931F1F910F91089560E070E0CB0104
:1070F000F9CF0F931F93CF93DF93DC01E09114013D
:10710000F091150111961C921E9214966D917D912D
:107110008D919C911797613071058105910519F149
:1071200006811781208531856017710782079307D3
:10713000D0F4611571058105910521F46685778587
:1071400080899189ED01688779878A879B87A7DF86
:107150006C877D878E879F8790E080E0DF91CF915D
:107160001F910F91089581E090E0F8CFFC016281BA
:10717000738190E080E0982F872F762F66272181FA
:10718000622B982F872F762F66272081622B0895F8
:1071900088B38A6188BB87B38A6B87BBBE9882E558
:1071A0008DB981E08EB908958FB9779BFECF8FB1ED
:1071B00008958FEFF9CFFF920F931F93CF93DF9333
:1071C000C82FD42F152F062FF72E87FF08C040E0B9
:1071D00050E0BA0187E7EFDF8230E8F4CF77C49A56
:1071E000E8DFC498E6DF8C2FDFDF8F2DDDDF802F17
:1071F000DBDF812FD9DF8D2FD7DF85E9C03421F088
:1072000087E8C83409F081E0CFDFCAE0D2DF87FF2A
:1072100002C0C150D9F7CDB7DEB7E5E043C6B0E054
:10722000A0E0E4E1F9E31FC67C0169018091160149
:1072300083FD07C089E0440F551F661F771F8A959D
:10724000D1F781E5B8DF811107C0C0E4DCE9B1DF27
:107250008F3F29F42197D9F7C1E0D0E01DC08E3FC0
:10726000D9F7C2E0D2E0C01BD10BCC19DD0981E017
:10727000C81AD108C0F4E114F104B9F00E0D1F1DB5
:1072800098DFF70181937F010E171F07C9F791DF80
:107290002197E9F7D0E0C0E0C49A8BDFCE01CDB7EB
:1072A000DEB7E8E0FCC585DFE2CF83DF01501109DE
:1072B000E1F7EDCFB0E0A0E0EFE5F9E3D4C5EC01F4
:1072C0006A017B0102E010E02EEF31E0A8DF892B9C
:1072D000C1F48881998185359A4AA9F422E530E084
:1072E000B701A601CE019BDF892B79F481E02881CB
:1072F00039812634314409F480E0CDB7DEB7E8E0C7
:10730000CEC583E0FACF82E0F8CF81E0F6CFA4E0EB
:10731000B0E0ECE8F9E3A7C562307105810591059D
:1073200028F461E070E080E090E033C0E091140167
:10733000F0911501C680D780E084F1846C157D053D
:107340008E059F0570F72081233059F7AB01BC01F2
:107350009A012F773327220F331F220F331F97E015
:1073600076956795579547959A95D1F7C284D384BA
:10737000E484F5844C0D5D1D6E1D7F1D04E010E05E
:10738000CE0101964CDF892B61F6CE010196EEDE2F
:107390009F702496E8E083C54F925F926F927F9230
:1073A000BF92CF92DF92EF92FF920F931F93CF93F2
:1073B000DF93CDB7DEB7EC970FB6F894DEBF0FBE04
:1073C000CDBFE0901401F0901501E114F10409F42F
:1073D0003EC1F70111829E012F5C3F4F3CA32BA3BE
:1073E0009C016901F90180812F5F3F4F8032C9F311
:1073F0008F3209F469011DA21EA21FA218A6F60170
:107400008081A0E2BA2E803208F0CDC0CE018196F4
:1074100070DE1982009709F4EEC0EC960FB6F8946E
:10742000DEBF0FBECDBFDF91CF911F910F91FF90B7
:10743000EF90DF90CF90BF907F906F905F904F90D4
:107440000895B192B5C0C30ED11C81E0913208F00D
:1074500080E01B968C93CE0181964BDE0097E9F677
:1074600029A13AA12F703327F5E0220F331FFA9597
:10747000E1F74DA55EA56FA578A900E210E0CE0169
:107480000196CDDE892B19F081E090E0C6CF89818D
:10749000811103C083E090E0C0CF8C8583FD13C0D1
:1074A0000BA11CA19E012F5F3F4FD801B801655F62
:1074B0007F4FA617B70709F45DC0F90141919F01FD
:1074C0009D914917B1F309A11AA10F5F1F4F11F345
:1074D0008DA59EA5AFA5B8A90097A105B105D1F2CC
:1074E00098012F703327232BB9F40196A11DB11DEC
:1074F0008DA79EA7AFA7B8AB69A57AA58BA59CA5BC
:10750000F701611571058105910549F48481958123
:107510000817190708F0BECF1AA309A3A1CF22812B
:10752000E22FE150FF0BAF019801E4E0369527957B
:10753000EA95E1F724233523232B71F7E8DE623047
:1075400071058105910508F49FCFF70146805780AA
:1075500060847184641575058605970508F09ACFD7
:1075600069A77AA78BA79CA79ADD6DA77EA78FA78F
:1075700098ABD2CFF801938591113DC084FF8ACF9B
:107580008D899E89B0E0A0E0DC01992788274B8D8A
:107590005C8D70E060E0842B952BA62BB72B8DA320
:1075A0009EA3AFA3B8A7ABA1BCA1FD01CD010B96D3
:1075B000E817F90709F045CF20E0E0E088E031E086
:1075C0003E0FEC0DFD2DF11D9081913208F43BCF63
:1075D0009F3209F438CF9E32E9F1281708F033CFF3
:1075E000FD01E20FF11D9083982F81E0820F282F7B
:1075F000E32F892FE4CF8981882309F44BCF8C8531
:1076000084FD48CF8D899E89B0E0A0E0DC019927F8
:1076100088274B8D5C8D70E060E0842B952BA62B2A
:10762000B72BF701868F978FA0A3B1A3CE014D96FC
:107630009DDDF701628F738F848F958F168A178A6D
:10764000108E118E81E0818390E080E0E6CE85E0AF
:1076500090E0E3CE883009F0F6CE9BE0C8CFA4E0FE
:10766000B0E0E4E3FBE3F5C38091040190910501F0
:10767000A0910601B0910701AC01BD014150510933
:1076800061097109411550476105710508F0FBC09A
:107690001C01D12CC12CEAE6F0E0FA83E98380E0FA
:1076A0006FEF61938F5F8038D9F7C214D30408F06D
:1076B000CEC080911401909115019C838B83892BFE
:1076C00021F484E02496E2E1E0C3AB81BC81119611
:1076D0008C9180FFF6CF41018C189D08B1E88B1684
:1076E000910418F030E8832E912CEB81FC81E28C20
:1076F000F38C048D158D86899789A08DB18DE81A3C
:10770000F90A0A0B1B0BA40170E060E0E416F50611
:107710000607170708F0B5C0512C412C8AE6682EE1
:1077200080E0782E8CC0EB81FC8186899789A08DC2
:10773000B18DAC01BD01517066277727452B462BD3
:10774000472B09F04BC0B280BA94AC01BD0129E0CF
:1077500076956795579547952A95D1F7B42219F5EF
:10776000892B8A2B8B2B69F4668D778D80A191A153
:10777000623071058105910570F4EB81FC81118205
:10778000A0CFAB81BC8192966D917D918D919C91A2
:107790009597BDDDEDCFAB81BC8192966D937D93C6
:1077A0008D939C939597EB81FC8162A173A184A139
:1077B00095A175DC611571058105910529F4AB81F1
:1077C000BC8111961C927DCF6B0D711D811D911D89
:1077D000EB81FC8166A377A380A791A7AB81BC81D5
:1077E00056962D913C913170A12C92E0B92EA21A9F
:1077F000B30AEA14FB0408F45701EB81FC8146A1AB
:1078000057A160A571A58501C30109DD892BB9F6D2
:10781000EB81FC8186899789A08DB18D8A0D9B1D96
:10782000A11DB11D868B978BA08FB18FEA18FB0825
:107830004A0C5B1C6114710411F06A0C7B1CE1148E
:10784000F10409F070CF8414950409F03ACFAAE648
:10785000B0E020E0C6018A569040FC01EA0FFB1F11
:10786000E4913D91E31313C02F5F2038B1F7F0E8A6
:10787000CF0ED11CC11420E7D20609F00CCF80E056
:1078800021CF740149CF83E01DCF85E01BCF5FB7C7
:10789000F894E199FECF23E0F60120935700E89594
:1078A00007B600FCFDCFAAE6B0E040E02C91FC0159
:1078B000EA0FFB1F11963C91119761E0090160935B
:1078C0005700E89511244E5F1296403879F725E06D
:1078D000F60120935700E89507B600FCFDCF61E163
:1078E00060935700E8955FBF20E0E981FA81E80FD7
:1078F000F91FE491A981BA813D91BA83A983E31369
:10790000C4CF2F5F203889F7B2CFA8E2B0E0EAE811
:10791000FCE3A0C288B3886188BB3ADC8FE99FE0B2
:107920000197F1F700C0000014E18FEF3DDC11502A
:10793000E1F71092150110921401C49A1AE039DC93
:107940001150E9F740E050E0BA0180E434DC182F30
:10795000813009F048C04AEA51E060E070E088E414
:107960002ADC813009F011C18E010F5F1F4F6E01BB
:1079700095E0C90ED11C78011CDCD7018D937D01E7
:10798000CA16DB06C9F78B81813069F58C818A3A8A
:1079900051F540E1C42E47E2D42E40E050E060E0D3
:1079A00070E489EE08DC811114C040E050E0BA01B7
:1079B0008AE701DC811117C0FCDBD8018D938D01B2
:1079C000AE15BF05C9F789811CE086FD0DC014E026
:1079D0000BC0E7ECF0E03197F1F700C00000F1E0F8
:1079E000CF1AD108D1F610E010931601C49AE1DB4A
:1079F000112309F4F7C040E050E0BA01CE0101962E
:107A000059DC813009F0EAC000E110E02EEB31E0F2
:107A100040E050E0BA01CE01019601DC892B09F06B
:107A2000E1C08D81882309F4DDC0CE0109969EDB7B
:107A30006B017C01BC01A601CE0101963BDC8330C9
:107A400009F4D0C08111CEC004E210E02DE030E096
:107A5000B701A601CE010196E2DB892B09F0C2C075
:107A60002A853B8550E040E02115310529F4CE01FF
:107A700048967CDB9B01AC01AC81B0E0E0D12B01EE
:107A80003C018A809B80B12CA12CC80CD91CEA1C1B
:107A9000FB1CC092F400D092F500E092F600F09248
:107AA000F70039803092EC000D811E811093EF00B9
:107AB0000093EE006F81788590E080E0611571059C
:107AC00019F4CE01449652DB24E0169507952A95C9
:107AD000E1F7980150E040E02DA33EA34FA358A743
:107AE000681979098A099B09641975098609970932
:107AF000621B730B840B950B232D30E050E040E0AC
:107B00007CD1DA01C9010296A11DB11D8093F0005C
:107B10009093F100A093F200B093F300873F9F4F42
:107B2000A105B10508F45EC083E08093EA00CE01B0
:107B300080961CDB6093F8007093F9008093FA0044
:107B40009093FB008DA19EA1AFA1B8A5C80ED91E30
:107B5000EA1EFB1E4C0C5D1C6E1C7F1C4092FC0040
:107B60005092FD006092FE007092FF001092EB00B8
:107B70008AEE90E0909315018093140181E58DB910
:107B80001EB881E0A896E1E181C140E050E0BA0171
:107B900089EE11DB01E4823010F412E009EE30E1ED
:107BA000E32E37E2F32E40E050E0BA01802F03DBF2
:107BB000811109C040E052E060E070E080E5FBDA4E
:107BC000811111CF11CFE7ECF0E03197F1F700C050
:107BD0000000F1E0EF1AF10831F705CFC12CD12CEC
:107BE00076012DCF88B3886188BB80E0CBCFCF935F
:107BF000DF93EC01D1DB8330910521F482E0DF914A
:107C0000CF910895892B29F080DE811106C084E090
:107C1000F6CF25DD843099F7F7CFCE01BDDB833079
:107C2000910561F3892B99F71ADDE9CF815008F4AA
:107C300008952FEF30E792E0215030409040E1F777
:107C400000C00000F3CFD82F1DB888B3886188BB6F
:107C5000C0E0CD1303C088E0E9DFFACFDF9A81E00E
:107C6000E5DFDF9882E0E2DFCF5FF3CFF89488B3FF
:107C7000886188BB1DB81EB8DF98D7980C940000A7
:107C8000CF93DF93D0E0C0E06FEFCE01A5D0219677
:107C9000C930D105C9F7E199FECFDF91CF910895A1
:107CA000ADE0B0E0E5E5FEE3DCC0F89414BE0FB64D
:107CB000F894A89581B5886181BD11BC0FBEDF988D
:107CC000D79A66DA88B3886188BBC1988FE39CE94C
:107CD0000197F1F700C00000C19AEFE3FCE931978A
:107CE000F1F700C0000082E0A1DF0FDE811102C0C9
:107CF00081E0A9DFCE0101965C01F12CE12C6C0141
:107D0000C70162D0182F81110CC0F601EE0DFF1DC6
:107D1000E11021C0108280E690E069DF8823E1F164
:107D2000E8CF8FED810F8E35B0F782ED810F823075
:107D300090F31C3581F38FE9810F8A3108F41052DA
:107D4000F50111935F01FFEFEF1AFF0A89E0E816D2
:107D5000F104B1F6E0CF8EE28083E1E0EE0DEC0DB0
:107D6000FD2DF11D82E48083E2E0EE0DEC0DFD2D92
:107D7000F11D89E48083E3E0EE0DEC0DFD2DF11D96
:107D80008EE48083E4E0EE0DEC0DFD2DF11D1082FC
:107D9000C6012DDF811105C073DF68DF491310C0F4
:107DA0001F5F212F30E0F901E05AFF4F40812C0D79
:107DB0003D1DF90190814111F1CF992309F499CF2B
:107DC000A4DD8111A8CF94CFE199FECF9FBB8EBBDC
:107DD000E09A99278DB30895262FE199FECF9FBB96
:107DE0008EBBE09A01970DB2021631F02DBB0FB693
:107DF000F894E29AE19A0FBE0895A1E21A2EAA1B06
:107E0000BB1BFD010DC0AA1FBB1FEE1FFF1FA2174A
:107E1000B307E407F50720F0A21BB30BE40BF50B47
:107E2000661F771F881F991F1A9469F760957095D0
:107E3000809590959B01AC01BD01CF01089540D084
:107E4000A59F900DB49F900DA49F800D911D1124AE
:107E500008952F923F924F925F926F927F928F92EE
:107E60009F92AF92BF92CF92DF92EF92FF920F93C9
:107E70001F93CF93DF93CDB7DEB7CA1BDB0B0FB6D3
:107E8000F894DEBF0FBECDBF09942A883988488890
:107E90005F846E847D848C849B84AA84B984C88426
:107EA000DF80EE80FD800C811B81AA81B981CE0F1D
:107EB000D11D0FB6F894DEBF0FBECDBFED01089502
:107EC000A29FB001B39FC001A39F700D811D11241B
:107ED000911DB29F700D811D1124911D0895F8947C
:027EE000FFCFD2
:0A7EE2004D454E552E42494E00005A
:040000030000700089
:00000001FF
